{
	"EtherWallet.sol": {
		"EtherWallet": {
			"abi": [
				{
					"inputs": [],
					"stateMutability": "payable",
					"type": "constructor"
				},
				{
					"anonymous": false,
					"inputs": [
						{
							"indexed": true,
							"internalType": "address",
							"name": "sender",
							"type": "address"
						},
						{
							"indexed": false,
							"internalType": "uint256",
							"name": "amount",
							"type": "uint256"
						},
						{
							"indexed": false,
							"internalType": "uint256",
							"name": "timestamp",
							"type": "uint256"
						}
					],
					"name": "EtherReceived",
					"type": "event"
				},
				{
					"anonymous": false,
					"inputs": [
						{
							"indexed": true,
							"internalType": "address",
							"name": "owner",
							"type": "address"
						},
						{
							"indexed": false,
							"internalType": "uint256",
							"name": "amount",
							"type": "uint256"
						},
						{
							"indexed": false,
							"internalType": "uint256",
							"name": "timestamp",
							"type": "uint256"
						}
					],
					"name": "EtherWithdrawn",
					"type": "event"
				},
				{
					"anonymous": false,
					"inputs": [
						{
							"indexed": true,
							"internalType": "address",
							"name": "sender",
							"type": "address"
						},
						{
							"indexed": false,
							"internalType": "uint256",
							"name": "amount",
							"type": "uint256"
						},
						{
							"indexed": false,
							"internalType": "bytes",
							"name": "data",
							"type": "bytes"
						},
						{
							"indexed": false,
							"internalType": "uint256",
							"name": "timestamp",
							"type": "uint256"
						}
					],
					"name": "FallbackCalled",
					"type": "event"
				},
				{
					"stateMutability": "payable",
					"type": "fallback"
				},
				{
					"inputs": [],
					"name": "getWalletBalance",
					"outputs": [
						{
							"internalType": "uint256",
							"name": "",
							"type": "uint256"
						}
					],
					"stateMutability": "view",
					"type": "function"
				},
				{
					"inputs": [],
					"name": "owner",
					"outputs": [
						{
							"internalType": "address payable",
							"name": "",
							"type": "address"
						}
					],
					"stateMutability": "view",
					"type": "function"
				},
				{
					"inputs": [
						{
							"internalType": "uint256",
							"name": "_amount",
							"type": "uint256"
						}
					],
					"name": "withdrawFunds",
					"outputs": [],
					"stateMutability": "nonpayable",
					"type": "function"
				},
				{
					"stateMutability": "payable",
					"type": "receive"
				}
			],
			"devdoc": {
				"author": "0x2V",
				"kind": "dev",
				"methods": {
					"getWalletBalance()": {
						"details": "Returns the balance of Ether stored in the contract."
					},
					"withdrawFunds(uint256)": {
						"details": "Withdraws a specified amount of Ether from the contract. Can only be called by the contract owner.",
						"params": {
							"_amount": "The amount of Ether to withdraw."
						}
					}
				},
				"title": "EtherWallet",
				"version": 1
			},
			"evm": {
				"assembly": "    /* \"EtherWallet.sol\":104:1606  contract EtherWallet{... */\n  mstore(0x40, 0xa0)\n    /* \"EtherWallet.sol\":229:239  msg.sender */\n  caller\n    /* \"EtherWallet.sol\":213:240  owner = payable(msg.sender) */\n  0xffffffffffffffffffffffffffffffffffffffff\n  and\n  0x80\n  dup2\n  0xffffffffffffffffffffffffffffffffffffffff\n  and\n  dup2\n  mstore\n  pop\n  pop\n    /* \"EtherWallet.sol\":104:1606  contract EtherWallet{... */\n  mload(0x80)\n  codecopy(0x00, dataOffset(sub_0), dataSize(sub_0))\n  0x00\n  assignImmutable(\"0x13600b294191fc92924bb3ce4b969c1e7e2bab8f4c93c3fc6d0a51733df3c060\")\n  return(0x00, dataSize(sub_0))\nstop\n\nsub_0: assembly {\n        /* \"EtherWallet.sol\":104:1606  contract EtherWallet{... */\n      mstore(0x40, 0x80)\n      jumpi(tag_1, lt(calldatasize, 0x04))\n      shr(0xe0, calldataload(0x00))\n      dup1\n      0x155dd5ee\n      eq\n      tag_3\n      jumpi\n      dup1\n      0x329a27e7\n      eq\n      tag_4\n      jumpi\n      dup1\n      0x8da5cb5b\n      eq\n      tag_5\n      jumpi\n      jump(tag_2)\n    tag_1:\n      jumpi(tag_2, calldatasize)\n        /* \"EtherWallet.sol\":1354:1364  msg.sender */\n      caller\n        /* \"EtherWallet.sol\":1340:1393  EtherReceived(msg.sender, msg.value, block.timestamp) */\n      0xffffffffffffffffffffffffffffffffffffffff\n      and\n      0x1d57945c1033a96907a78f6e0ebf6a03815725dac25f33cc806558670344ac88\n        /* \"EtherWallet.sol\":1366:1375  msg.value */\n      callvalue\n        /* \"EtherWallet.sol\":1377:1392  block.timestamp */\n      timestamp\n        /* \"EtherWallet.sol\":1340:1393  EtherReceived(msg.sender, msg.value, block.timestamp) */\n      mload(0x40)\n      tag_8\n      swap3\n      swap2\n      swap1\n      tag_9\n      jump\t// in\n    tag_8:\n      mload(0x40)\n      dup1\n      swap2\n      sub\n      swap1\n      log2\n        /* \"EtherWallet.sol\":104:1606  contract EtherWallet{... */\n      stop\n    tag_2:\n        /* \"EtherWallet.sol\":1540:1550  msg.sender */\n      caller\n        /* \"EtherWallet.sol\":1525:1589  FallbackCalled(msg.sender, msg.value, msg.data, block.timestamp) */\n      0xffffffffffffffffffffffffffffffffffffffff\n      and\n      0xa9c267d9f02e409b1c8099aeabf510975453c6b0299d199070448a33f3267e6a\n        /* \"EtherWallet.sol\":1552:1561  msg.value */\n      callvalue\n        /* \"EtherWallet.sol\":1563:1571  msg.data */\n      0x00\n      calldatasize\n        /* \"EtherWallet.sol\":1573:1588  block.timestamp */\n      timestamp\n        /* \"EtherWallet.sol\":1525:1589  FallbackCalled(msg.sender, msg.value, msg.data, block.timestamp) */\n      mload(0x40)\n      tag_12\n      swap5\n      swap4\n      swap3\n      swap2\n      swap1\n      tag_13\n      jump\t// in\n    tag_12:\n      mload(0x40)\n      dup1\n      swap2\n      sub\n      swap1\n      log2\n        /* \"EtherWallet.sol\":104:1606  contract EtherWallet{... */\n      stop\n        /* \"EtherWallet.sol\":901:1216  function withdrawFunds(uint256 _amount) external {... */\n    tag_3:\n      callvalue\n      dup1\n      iszero\n      tag_14\n      jumpi\n      0x00\n      dup1\n      revert\n    tag_14:\n      pop\n      tag_15\n      0x04\n      dup1\n      calldatasize\n      sub\n      dup2\n      add\n      swap1\n      tag_16\n      swap2\n      swap1\n      tag_17\n      jump\t// in\n    tag_16:\n      tag_18\n      jump\t// in\n    tag_15:\n      stop\n        /* \"EtherWallet.sol\":592:699  function getWalletBalance() external view returns (uint256) {... */\n    tag_4:\n      callvalue\n      dup1\n      iszero\n      tag_19\n      jumpi\n      0x00\n      dup1\n      revert\n    tag_19:\n      pop\n      tag_20\n      tag_21\n      jump\t// in\n    tag_20:\n      mload(0x40)\n      tag_22\n      swap2\n      swap1\n      tag_23\n      jump\t// in\n    tag_22:\n      mload(0x40)\n      dup1\n      swap2\n      sub\n      swap1\n      return\n        /* \"EtherWallet.sol\":133:171  address payable public immutable owner */\n    tag_5:\n      callvalue\n      dup1\n      iszero\n      tag_24\n      jumpi\n      0x00\n      dup1\n      revert\n    tag_24:\n      pop\n      tag_25\n      tag_26\n      jump\t// in\n    tag_25:\n      mload(0x40)\n      tag_27\n      swap2\n      swap1\n      tag_28\n      jump\t// in\n    tag_27:\n      mload(0x40)\n      dup1\n      swap2\n      sub\n      swap1\n      return\n        /* \"EtherWallet.sol\":901:1216  function withdrawFunds(uint256 _amount) external {... */\n    tag_18:\n        /* \"EtherWallet.sol\":983:988  owner */\n      immutable(\"0x13600b294191fc92924bb3ce4b969c1e7e2bab8f4c93c3fc6d0a51733df3c060\")\n        /* \"EtherWallet.sol\":969:988  msg.sender == owner */\n      0xffffffffffffffffffffffffffffffffffffffff\n      and\n        /* \"EtherWallet.sol\":969:979  msg.sender */\n      caller\n        /* \"EtherWallet.sol\":969:988  msg.sender == owner */\n      0xffffffffffffffffffffffffffffffffffffffff\n      and\n      eq\n        /* \"EtherWallet.sol\":961:1035  require(msg.sender == owner, \"Only the contract owner can withdraw funds\") */\n      tag_30\n      jumpi\n      mload(0x40)\n      0x08c379a000000000000000000000000000000000000000000000000000000000\n      dup2\n      mstore\n      0x04\n      add\n      tag_31\n      swap1\n      tag_32\n      jump\t// in\n    tag_31:\n      mload(0x40)\n      dup1\n      swap2\n      sub\n      swap1\n      revert\n    tag_30:\n        /* \"EtherWallet.sol\":1065:1086  address(this).balance */\n      selfbalance\n        /* \"EtherWallet.sol\":1054:1061  _amount */\n      dup2\n        /* \"EtherWallet.sol\":1054:1086  _amount <= address(this).balance */\n      gt\n      iszero\n        /* \"EtherWallet.sol\":1046:1109  require(_amount <= address(this).balance, \"Insufficient funds\") */\n      tag_33\n      jumpi\n      mload(0x40)\n      0x08c379a000000000000000000000000000000000000000000000000000000000\n      dup2\n      mstore\n      0x04\n      add\n      tag_34\n      swap1\n      tag_35\n      jump\t// in\n    tag_34:\n      mload(0x40)\n      dup1\n      swap2\n      sub\n      swap1\n      revert\n    tag_33:\n        /* \"EtherWallet.sol\":1142:1147  owner */\n      immutable(\"0x13600b294191fc92924bb3ce4b969c1e7e2bab8f4c93c3fc6d0a51733df3c060\")\n        /* \"EtherWallet.sol\":1127:1174  EtherWithdrawn(owner, _amount, block.timestamp) */\n      0xffffffffffffffffffffffffffffffffffffffff\n      and\n      0xd5ca65e1ec4f4864fea7b9c5cb1ec3087a0dbf9c74641db3f6458edf445c4051\n        /* \"EtherWallet.sol\":1149:1156  _amount */\n      dup3\n        /* \"EtherWallet.sol\":1158:1173  block.timestamp */\n      timestamp\n        /* \"EtherWallet.sol\":1127:1174  EtherWithdrawn(owner, _amount, block.timestamp) */\n      mload(0x40)\n      tag_36\n      swap3\n      swap2\n      swap1\n      tag_9\n      jump\t// in\n    tag_36:\n      mload(0x40)\n      dup1\n      swap2\n      sub\n      swap1\n      log2\n        /* \"EtherWallet.sol\":1185:1190  owner */\n      immutable(\"0x13600b294191fc92924bb3ce4b969c1e7e2bab8f4c93c3fc6d0a51733df3c060\")\n        /* \"EtherWallet.sol\":1185:1199  owner.transfer */\n      0xffffffffffffffffffffffffffffffffffffffff\n      and\n        /* \"EtherWallet.sol\":1185:1208  owner.transfer(_amount) */\n      0x08fc\n        /* \"EtherWallet.sol\":1200:1207  _amount */\n      dup3\n        /* \"EtherWallet.sol\":1185:1208  owner.transfer(_amount) */\n      swap1\n      dup2\n      iszero\n      mul\n      swap1\n      mload(0x40)\n      0x00\n      mload(0x40)\n      dup1\n      dup4\n      sub\n      dup2\n      dup6\n      dup9\n      dup9\n      call\n      swap4\n      pop\n      pop\n      pop\n      pop\n      iszero\n      dup1\n      iszero\n      tag_38\n      jumpi\n      returndatasize\n      0x00\n      dup1\n      returndatacopy\n      revert(0x00, returndatasize)\n    tag_38:\n      pop\n        /* \"EtherWallet.sol\":901:1216  function withdrawFunds(uint256 _amount) external {... */\n      pop\n      jump\t// out\n        /* \"EtherWallet.sol\":592:699  function getWalletBalance() external view returns (uint256) {... */\n    tag_21:\n        /* \"EtherWallet.sol\":643:650  uint256 */\n      0x00\n        /* \"EtherWallet.sol\":670:691  address(this).balance */\n      selfbalance\n        /* \"EtherWallet.sol\":663:691  return address(this).balance */\n      swap1\n      pop\n        /* \"EtherWallet.sol\":592:699  function getWalletBalance() external view returns (uint256) {... */\n      swap1\n      jump\t// out\n        /* \"EtherWallet.sol\":133:171  address payable public immutable owner */\n    tag_26:\n      immutable(\"0x13600b294191fc92924bb3ce4b969c1e7e2bab8f4c93c3fc6d0a51733df3c060\")\n      dup2\n      jump\t// out\n        /* \"#utility.yul\":7:84   */\n    tag_40:\n        /* \"#utility.yul\":44:51   */\n      0x00\n        /* \"#utility.yul\":73:78   */\n      dup2\n        /* \"#utility.yul\":62:78   */\n      swap1\n      pop\n        /* \"#utility.yul\":7:84   */\n      swap2\n      swap1\n      pop\n      jump\t// out\n        /* \"#utility.yul\":90:208   */\n    tag_41:\n        /* \"#utility.yul\":177:201   */\n      tag_62\n        /* \"#utility.yul\":195:200   */\n      dup2\n        /* \"#utility.yul\":177:201   */\n      tag_40\n      jump\t// in\n    tag_62:\n        /* \"#utility.yul\":172:175   */\n      dup3\n        /* \"#utility.yul\":165:202   */\n      mstore\n        /* \"#utility.yul\":90:208   */\n      pop\n      pop\n      jump\t// out\n        /* \"#utility.yul\":214:546   */\n    tag_9:\n        /* \"#utility.yul\":335:339   */\n      0x00\n        /* \"#utility.yul\":373:375   */\n      0x40\n        /* \"#utility.yul\":362:371   */\n      dup3\n        /* \"#utility.yul\":358:376   */\n      add\n        /* \"#utility.yul\":350:376   */\n      swap1\n      pop\n        /* \"#utility.yul\":386:457   */\n      tag_64\n        /* \"#utility.yul\":454:455   */\n      0x00\n        /* \"#utility.yul\":443:452   */\n      dup4\n        /* \"#utility.yul\":439:456   */\n      add\n        /* \"#utility.yul\":430:436   */\n      dup6\n        /* \"#utility.yul\":386:457   */\n      tag_41\n      jump\t// in\n    tag_64:\n        /* \"#utility.yul\":467:539   */\n      tag_65\n        /* \"#utility.yul\":535:537   */\n      0x20\n        /* \"#utility.yul\":524:533   */\n      dup4\n        /* \"#utility.yul\":520:538   */\n      add\n        /* \"#utility.yul\":511:517   */\n      dup5\n        /* \"#utility.yul\":467:539   */\n      tag_41\n      jump\t// in\n    tag_65:\n        /* \"#utility.yul\":214:546   */\n      swap4\n      swap3\n      pop\n      pop\n      pop\n      jump\t// out\n        /* \"#utility.yul\":552:720   */\n    tag_42:\n        /* \"#utility.yul\":635:646   */\n      0x00\n        /* \"#utility.yul\":669:675   */\n      dup3\n        /* \"#utility.yul\":664:667   */\n      dup3\n        /* \"#utility.yul\":657:676   */\n      mstore\n        /* \"#utility.yul\":709:713   */\n      0x20\n        /* \"#utility.yul\":704:707   */\n      dup3\n        /* \"#utility.yul\":700:714   */\n      add\n        /* \"#utility.yul\":685:714   */\n      swap1\n      pop\n        /* \"#utility.yul\":552:720   */\n      swap3\n      swap2\n      pop\n      pop\n      jump\t// out\n        /* \"#utility.yul\":726:874   */\n    tag_43:\n        /* \"#utility.yul\":824:830   */\n      dup3\n        /* \"#utility.yul\":819:822   */\n      dup2\n        /* \"#utility.yul\":814:817   */\n      dup4\n        /* \"#utility.yul\":801:831   */\n      calldatacopy\n        /* \"#utility.yul\":865:866   */\n      0x00\n        /* \"#utility.yul\":856:862   */\n      dup4\n        /* \"#utility.yul\":851:854   */\n      dup4\n        /* \"#utility.yul\":847:863   */\n      add\n        /* \"#utility.yul\":840:867   */\n      mstore\n        /* \"#utility.yul\":726:874   */\n      pop\n      pop\n      pop\n      jump\t// out\n        /* \"#utility.yul\":880:982   */\n    tag_44:\n        /* \"#utility.yul\":921:927   */\n      0x00\n        /* \"#utility.yul\":972:974   */\n      0x1f\n        /* \"#utility.yul\":968:975   */\n      not\n        /* \"#utility.yul\":963:965   */\n      0x1f\n        /* \"#utility.yul\":956:961   */\n      dup4\n        /* \"#utility.yul\":952:966   */\n      add\n        /* \"#utility.yul\":948:976   */\n      and\n        /* \"#utility.yul\":938:976   */\n      swap1\n      pop\n        /* \"#utility.yul\":880:982   */\n      swap2\n      swap1\n      pop\n      jump\t// out\n        /* \"#utility.yul\":1010:1324   */\n    tag_45:\n        /* \"#utility.yul\":1106:1109   */\n      0x00\n        /* \"#utility.yul\":1127:1197   */\n      tag_70\n        /* \"#utility.yul\":1190:1196   */\n      dup4\n        /* \"#utility.yul\":1185:1188   */\n      dup6\n        /* \"#utility.yul\":1127:1197   */\n      tag_42\n      jump\t// in\n    tag_70:\n        /* \"#utility.yul\":1120:1197   */\n      swap4\n      pop\n        /* \"#utility.yul\":1207:1263   */\n      tag_71\n        /* \"#utility.yul\":1256:1262   */\n      dup4\n        /* \"#utility.yul\":1251:1254   */\n      dup6\n        /* \"#utility.yul\":1244:1249   */\n      dup5\n        /* \"#utility.yul\":1207:1263   */\n      tag_43\n      jump\t// in\n    tag_71:\n        /* \"#utility.yul\":1288:1317   */\n      tag_72\n        /* \"#utility.yul\":1310:1316   */\n      dup4\n        /* \"#utility.yul\":1288:1317   */\n      tag_44\n      jump\t// in\n    tag_72:\n        /* \"#utility.yul\":1283:1286   */\n      dup5\n        /* \"#utility.yul\":1279:1318   */\n      add\n        /* \"#utility.yul\":1272:1318   */\n      swap1\n      pop\n        /* \"#utility.yul\":1010:1324   */\n      swap4\n      swap3\n      pop\n      pop\n      pop\n      jump\t// out\n        /* \"#utility.yul\":1330:1879   */\n    tag_13:\n        /* \"#utility.yul\":1507:1511   */\n      0x00\n        /* \"#utility.yul\":1545:1547   */\n      0x60\n        /* \"#utility.yul\":1534:1543   */\n      dup3\n        /* \"#utility.yul\":1530:1548   */\n      add\n        /* \"#utility.yul\":1522:1548   */\n      swap1\n      pop\n        /* \"#utility.yul\":1558:1629   */\n      tag_74\n        /* \"#utility.yul\":1626:1627   */\n      0x00\n        /* \"#utility.yul\":1615:1624   */\n      dup4\n        /* \"#utility.yul\":1611:1628   */\n      add\n        /* \"#utility.yul\":1602:1608   */\n      dup8\n        /* \"#utility.yul\":1558:1629   */\n      tag_41\n      jump\t// in\n    tag_74:\n        /* \"#utility.yul\":1676:1685   */\n      dup2\n        /* \"#utility.yul\":1670:1674   */\n      dup2\n        /* \"#utility.yul\":1666:1686   */\n      sub\n        /* \"#utility.yul\":1661:1663   */\n      0x20\n        /* \"#utility.yul\":1650:1659   */\n      dup4\n        /* \"#utility.yul\":1646:1664   */\n      add\n        /* \"#utility.yul\":1639:1687   */\n      mstore\n        /* \"#utility.yul\":1704:1790   */\n      tag_75\n        /* \"#utility.yul\":1785:1789   */\n      dup2\n        /* \"#utility.yul\":1776:1782   */\n      dup6\n        /* \"#utility.yul\":1768:1774   */\n      dup8\n        /* \"#utility.yul\":1704:1790   */\n      tag_45\n      jump\t// in\n    tag_75:\n        /* \"#utility.yul\":1696:1790   */\n      swap1\n      pop\n        /* \"#utility.yul\":1800:1872   */\n      tag_76\n        /* \"#utility.yul\":1868:1870   */\n      0x40\n        /* \"#utility.yul\":1857:1866   */\n      dup4\n        /* \"#utility.yul\":1853:1871   */\n      add\n        /* \"#utility.yul\":1844:1850   */\n      dup5\n        /* \"#utility.yul\":1800:1872   */\n      tag_41\n      jump\t// in\n    tag_76:\n        /* \"#utility.yul\":1330:1879   */\n      swap6\n      swap5\n      pop\n      pop\n      pop\n      pop\n      pop\n      jump\t// out\n        /* \"#utility.yul\":1966:2083   */\n    tag_47:\n        /* \"#utility.yul\":2075:2076   */\n      0x00\n        /* \"#utility.yul\":2072:2073   */\n      dup1\n        /* \"#utility.yul\":2065:2077   */\n      revert\n        /* \"#utility.yul\":2212:2334   */\n    tag_49:\n        /* \"#utility.yul\":2285:2309   */\n      tag_81\n        /* \"#utility.yul\":2303:2308   */\n      dup2\n        /* \"#utility.yul\":2285:2309   */\n      tag_40\n      jump\t// in\n    tag_81:\n        /* \"#utility.yul\":2278:2283   */\n      dup2\n        /* \"#utility.yul\":2275:2310   */\n      eq\n        /* \"#utility.yul\":2265:2328   */\n      tag_82\n      jumpi\n        /* \"#utility.yul\":2324:2325   */\n      0x00\n        /* \"#utility.yul\":2321:2322   */\n      dup1\n        /* \"#utility.yul\":2314:2326   */\n      revert\n        /* \"#utility.yul\":2265:2328   */\n    tag_82:\n        /* \"#utility.yul\":2212:2334   */\n      pop\n      jump\t// out\n        /* \"#utility.yul\":2340:2479   */\n    tag_50:\n        /* \"#utility.yul\":2386:2391   */\n      0x00\n        /* \"#utility.yul\":2424:2430   */\n      dup2\n        /* \"#utility.yul\":2411:2431   */\n      calldataload\n        /* \"#utility.yul\":2402:2431   */\n      swap1\n      pop\n        /* \"#utility.yul\":2440:2473   */\n      tag_84\n        /* \"#utility.yul\":2467:2472   */\n      dup2\n        /* \"#utility.yul\":2440:2473   */\n      tag_49\n      jump\t// in\n    tag_84:\n        /* \"#utility.yul\":2340:2479   */\n      swap3\n      swap2\n      pop\n      pop\n      jump\t// out\n        /* \"#utility.yul\":2485:2814   */\n    tag_17:\n        /* \"#utility.yul\":2544:2550   */\n      0x00\n        /* \"#utility.yul\":2593:2595   */\n      0x20\n        /* \"#utility.yul\":2581:2590   */\n      dup3\n        /* \"#utility.yul\":2572:2579   */\n      dup5\n        /* \"#utility.yul\":2568:2591   */\n      sub\n        /* \"#utility.yul\":2564:2596   */\n      slt\n        /* \"#utility.yul\":2561:2680   */\n      iszero\n      tag_86\n      jumpi\n        /* \"#utility.yul\":2599:2678   */\n      tag_87\n      tag_47\n      jump\t// in\n    tag_87:\n        /* \"#utility.yul\":2561:2680   */\n    tag_86:\n        /* \"#utility.yul\":2719:2720   */\n      0x00\n        /* \"#utility.yul\":2744:2797   */\n      tag_88\n        /* \"#utility.yul\":2789:2796   */\n      dup5\n        /* \"#utility.yul\":2780:2786   */\n      dup3\n        /* \"#utility.yul\":2769:2778   */\n      dup6\n        /* \"#utility.yul\":2765:2787   */\n      add\n        /* \"#utility.yul\":2744:2797   */\n      tag_50\n      jump\t// in\n    tag_88:\n        /* \"#utility.yul\":2734:2797   */\n      swap2\n      pop\n        /* \"#utility.yul\":2690:2807   */\n      pop\n        /* \"#utility.yul\":2485:2814   */\n      swap3\n      swap2\n      pop\n      pop\n      jump\t// out\n        /* \"#utility.yul\":2820:3042   */\n    tag_23:\n        /* \"#utility.yul\":2913:2917   */\n      0x00\n        /* \"#utility.yul\":2951:2953   */\n      0x20\n        /* \"#utility.yul\":2940:2949   */\n      dup3\n        /* \"#utility.yul\":2936:2954   */\n      add\n        /* \"#utility.yul\":2928:2954   */\n      swap1\n      pop\n        /* \"#utility.yul\":2964:3035   */\n      tag_90\n        /* \"#utility.yul\":3032:3033   */\n      0x00\n        /* \"#utility.yul\":3021:3030   */\n      dup4\n        /* \"#utility.yul\":3017:3034   */\n      add\n        /* \"#utility.yul\":3008:3014   */\n      dup5\n        /* \"#utility.yul\":2964:3035   */\n      tag_41\n      jump\t// in\n    tag_90:\n        /* \"#utility.yul\":2820:3042   */\n      swap3\n      swap2\n      pop\n      pop\n      jump\t// out\n        /* \"#utility.yul\":3048:3174   */\n    tag_51:\n        /* \"#utility.yul\":3085:3092   */\n      0x00\n        /* \"#utility.yul\":3125:3167   */\n      0xffffffffffffffffffffffffffffffffffffffff\n        /* \"#utility.yul\":3118:3123   */\n      dup3\n        /* \"#utility.yul\":3114:3168   */\n      and\n        /* \"#utility.yul\":3103:3168   */\n      swap1\n      pop\n        /* \"#utility.yul\":3048:3174   */\n      swap2\n      swap1\n      pop\n      jump\t// out\n        /* \"#utility.yul\":3180:3284   */\n    tag_52:\n        /* \"#utility.yul\":3225:3232   */\n      0x00\n        /* \"#utility.yul\":3254:3278   */\n      tag_93\n        /* \"#utility.yul\":3272:3277   */\n      dup3\n        /* \"#utility.yul\":3254:3278   */\n      tag_51\n      jump\t// in\n    tag_93:\n        /* \"#utility.yul\":3243:3278   */\n      swap1\n      pop\n        /* \"#utility.yul\":3180:3284   */\n      swap2\n      swap1\n      pop\n      jump\t// out\n        /* \"#utility.yul\":3290:3432   */\n    tag_53:\n        /* \"#utility.yul\":3393:3425   */\n      tag_95\n        /* \"#utility.yul\":3419:3424   */\n      dup2\n        /* \"#utility.yul\":3393:3425   */\n      tag_52\n      jump\t// in\n    tag_95:\n        /* \"#utility.yul\":3388:3391   */\n      dup3\n        /* \"#utility.yul\":3381:3426   */\n      mstore\n        /* \"#utility.yul\":3290:3432   */\n      pop\n      pop\n      jump\t// out\n        /* \"#utility.yul\":3438:3692   */\n    tag_28:\n        /* \"#utility.yul\":3547:3551   */\n      0x00\n        /* \"#utility.yul\":3585:3587   */\n      0x20\n        /* \"#utility.yul\":3574:3583   */\n      dup3\n        /* \"#utility.yul\":3570:3588   */\n      add\n        /* \"#utility.yul\":3562:3588   */\n      swap1\n      pop\n        /* \"#utility.yul\":3598:3685   */\n      tag_97\n        /* \"#utility.yul\":3682:3683   */\n      0x00\n        /* \"#utility.yul\":3671:3680   */\n      dup4\n        /* \"#utility.yul\":3667:3684   */\n      add\n        /* \"#utility.yul\":3658:3664   */\n      dup5\n        /* \"#utility.yul\":3598:3685   */\n      tag_53\n      jump\t// in\n    tag_97:\n        /* \"#utility.yul\":3438:3692   */\n      swap3\n      swap2\n      pop\n      pop\n      jump\t// out\n        /* \"#utility.yul\":3698:3867   */\n    tag_54:\n        /* \"#utility.yul\":3782:3793   */\n      0x00\n        /* \"#utility.yul\":3816:3822   */\n      dup3\n        /* \"#utility.yul\":3811:3814   */\n      dup3\n        /* \"#utility.yul\":3804:3823   */\n      mstore\n        /* \"#utility.yul\":3856:3860   */\n      0x20\n        /* \"#utility.yul\":3851:3854   */\n      dup3\n        /* \"#utility.yul\":3847:3861   */\n      add\n        /* \"#utility.yul\":3832:3861   */\n      swap1\n      pop\n        /* \"#utility.yul\":3698:3867   */\n      swap3\n      swap2\n      pop\n      pop\n      jump\t// out\n        /* \"#utility.yul\":3873:4102   */\n    tag_55:\n        /* \"#utility.yul\":4013:4047   */\n      0x4f6e6c792074686520636f6e7472616374206f776e65722063616e2077697468\n        /* \"#utility.yul\":4009:4010   */\n      0x00\n        /* \"#utility.yul\":4001:4007   */\n      dup3\n        /* \"#utility.yul\":3997:4011   */\n      add\n        /* \"#utility.yul\":3990:4048   */\n      mstore\n        /* \"#utility.yul\":4082:4094   */\n      0x647261772066756e647300000000000000000000000000000000000000000000\n        /* \"#utility.yul\":4077:4079   */\n      0x20\n        /* \"#utility.yul\":4069:4075   */\n      dup3\n        /* \"#utility.yul\":4065:4080   */\n      add\n        /* \"#utility.yul\":4058:4095   */\n      mstore\n        /* \"#utility.yul\":3873:4102   */\n      pop\n      jump\t// out\n        /* \"#utility.yul\":4108:4474   */\n    tag_56:\n        /* \"#utility.yul\":4250:4253   */\n      0x00\n        /* \"#utility.yul\":4271:4338   */\n      tag_101\n        /* \"#utility.yul\":4335:4337   */\n      0x2a\n        /* \"#utility.yul\":4330:4333   */\n      dup4\n        /* \"#utility.yul\":4271:4338   */\n      tag_54\n      jump\t// in\n    tag_101:\n        /* \"#utility.yul\":4264:4338   */\n      swap2\n      pop\n        /* \"#utility.yul\":4347:4440   */\n      tag_102\n        /* \"#utility.yul\":4436:4439   */\n      dup3\n        /* \"#utility.yul\":4347:4440   */\n      tag_55\n      jump\t// in\n    tag_102:\n        /* \"#utility.yul\":4465:4467   */\n      0x40\n        /* \"#utility.yul\":4460:4463   */\n      dup3\n        /* \"#utility.yul\":4456:4468   */\n      add\n        /* \"#utility.yul\":4449:4468   */\n      swap1\n      pop\n        /* \"#utility.yul\":4108:4474   */\n      swap2\n      swap1\n      pop\n      jump\t// out\n        /* \"#utility.yul\":4480:4899   */\n    tag_32:\n        /* \"#utility.yul\":4646:4650   */\n      0x00\n        /* \"#utility.yul\":4684:4686   */\n      0x20\n        /* \"#utility.yul\":4673:4682   */\n      dup3\n        /* \"#utility.yul\":4669:4687   */\n      add\n        /* \"#utility.yul\":4661:4687   */\n      swap1\n      pop\n        /* \"#utility.yul\":4733:4742   */\n      dup2\n        /* \"#utility.yul\":4727:4731   */\n      dup2\n        /* \"#utility.yul\":4723:4743   */\n      sub\n        /* \"#utility.yul\":4719:4720   */\n      0x00\n        /* \"#utility.yul\":4708:4717   */\n      dup4\n        /* \"#utility.yul\":4704:4721   */\n      add\n        /* \"#utility.yul\":4697:4744   */\n      mstore\n        /* \"#utility.yul\":4761:4892   */\n      tag_104\n        /* \"#utility.yul\":4887:4891   */\n      dup2\n        /* \"#utility.yul\":4761:4892   */\n      tag_56\n      jump\t// in\n    tag_104:\n        /* \"#utility.yul\":4753:4892   */\n      swap1\n      pop\n        /* \"#utility.yul\":4480:4899   */\n      swap2\n      swap1\n      pop\n      jump\t// out\n        /* \"#utility.yul\":4905:5073   */\n    tag_57:\n        /* \"#utility.yul\":5045:5065   */\n      0x496e73756666696369656e742066756e64730000000000000000000000000000\n        /* \"#utility.yul\":5041:5042   */\n      0x00\n        /* \"#utility.yul\":5033:5039   */\n      dup3\n        /* \"#utility.yul\":5029:5043   */\n      add\n        /* \"#utility.yul\":5022:5066   */\n      mstore\n        /* \"#utility.yul\":4905:5073   */\n      pop\n      jump\t// out\n        /* \"#utility.yul\":5079:5445   */\n    tag_58:\n        /* \"#utility.yul\":5221:5224   */\n      0x00\n        /* \"#utility.yul\":5242:5309   */\n      tag_107\n        /* \"#utility.yul\":5306:5308   */\n      0x12\n        /* \"#utility.yul\":5301:5304   */\n      dup4\n        /* \"#utility.yul\":5242:5309   */\n      tag_54\n      jump\t// in\n    tag_107:\n        /* \"#utility.yul\":5235:5309   */\n      swap2\n      pop\n        /* \"#utility.yul\":5318:5411   */\n      tag_108\n        /* \"#utility.yul\":5407:5410   */\n      dup3\n        /* \"#utility.yul\":5318:5411   */\n      tag_57\n      jump\t// in\n    tag_108:\n        /* \"#utility.yul\":5436:5438   */\n      0x20\n        /* \"#utility.yul\":5431:5434   */\n      dup3\n        /* \"#utility.yul\":5427:5439   */\n      add\n        /* \"#utility.yul\":5420:5439   */\n      swap1\n      pop\n        /* \"#utility.yul\":5079:5445   */\n      swap2\n      swap1\n      pop\n      jump\t// out\n        /* \"#utility.yul\":5451:5870   */\n    tag_35:\n        /* \"#utility.yul\":5617:5621   */\n      0x00\n        /* \"#utility.yul\":5655:5657   */\n      0x20\n        /* \"#utility.yul\":5644:5653   */\n      dup3\n        /* \"#utility.yul\":5640:5658   */\n      add\n        /* \"#utility.yul\":5632:5658   */\n      swap1\n      pop\n        /* \"#utility.yul\":5704:5713   */\n      dup2\n        /* \"#utility.yul\":5698:5702   */\n      dup2\n        /* \"#utility.yul\":5694:5714   */\n      sub\n        /* \"#utility.yul\":5690:5691   */\n      0x00\n        /* \"#utility.yul\":5679:5688   */\n      dup4\n        /* \"#utility.yul\":5675:5692   */\n      add\n        /* \"#utility.yul\":5668:5715   */\n      mstore\n        /* \"#utility.yul\":5732:5863   */\n      tag_110\n        /* \"#utility.yul\":5858:5862   */\n      dup2\n        /* \"#utility.yul\":5732:5863   */\n      tag_58\n      jump\t// in\n    tag_110:\n        /* \"#utility.yul\":5724:5863   */\n      swap1\n      pop\n        /* \"#utility.yul\":5451:5870   */\n      swap2\n      swap1\n      pop\n      jump\t// out\n\n    auxdata: 0xa264697066735822122091bcb82510ba06f3985abf071f997a2b3ff0ff3e767de4f2b0f5a27538792f9864736f6c634300081a0033\n}\n",
				"bytecode": {
					"linkReferences": {},
					"object": "60a06040523373ffffffffffffffffffffffffffffffffffffffff1660808173ffffffffffffffffffffffffffffffffffffffff16815250506080516106106100655f395f818161016201528181610233015281816102a3015261031101526106105ff3fe608060405260043610610037575f3560e01c8063155dd5ee146100e4578063329a27e71461010c5780638da5cb5b146101365761008e565b3661008e573373ffffffffffffffffffffffffffffffffffffffff167f1d57945c1033a96907a78f6e0ebf6a03815725dac25f33cc806558670344ac88344260405161008492919061034b565b60405180910390a2005b3373ffffffffffffffffffffffffffffffffffffffff167fa9c267d9f02e409b1c8099aeabf510975453c6b0299d199070448a33f3267e6a345f36426040516100da94939291906103cc565b60405180910390a2005b3480156100ef575f80fd5b5061010a60048036038101906101059190610438565b610160565b005b348015610117575f80fd5b50610120610308565b60405161012d9190610463565b60405180910390f35b348015610141575f80fd5b5061014a61030f565b60405161015791906104bb565b60405180910390f35b7f000000000000000000000000000000000000000000000000000000000000000073ffffffffffffffffffffffffffffffffffffffff163373ffffffffffffffffffffffffffffffffffffffff16146101ee576040517f08c379a00000000000000000000000000000000000000000000000000000000081526004016101e590610554565b60405180910390fd5b47811115610231576040517f08c379a0000000000000000000000000000000000000000000000000000000008152600401610228906105bc565b60405180910390fd5b7f000000000000000000000000000000000000000000000000000000000000000073ffffffffffffffffffffffffffffffffffffffff167fd5ca65e1ec4f4864fea7b9c5cb1ec3087a0dbf9c74641db3f6458edf445c4051824260405161029992919061034b565b60405180910390a27f000000000000000000000000000000000000000000000000000000000000000073ffffffffffffffffffffffffffffffffffffffff166108fc8290811502906040515f60405180830381858888f19350505050158015610304573d5f803e3d5ffd5b5050565b5f47905090565b7f000000000000000000000000000000000000000000000000000000000000000081565b5f819050919050565b61034581610333565b82525050565b5f60408201905061035e5f83018561033c565b61036b602083018461033c565b9392505050565b5f82825260208201905092915050565b828183375f83830152505050565b5f601f19601f8301169050919050565b5f6103ab8385610372565b93506103b8838584610382565b6103c183610390565b840190509392505050565b5f6060820190506103df5f83018761033c565b81810360208301526103f28185876103a0565b9050610401604083018461033c565b95945050505050565b5f80fd5b61041781610333565b8114610421575f80fd5b50565b5f813590506104328161040e565b92915050565b5f6020828403121561044d5761044c61040a565b5b5f61045a84828501610424565b91505092915050565b5f6020820190506104765f83018461033c565b92915050565b5f73ffffffffffffffffffffffffffffffffffffffff82169050919050565b5f6104a58261047c565b9050919050565b6104b58161049b565b82525050565b5f6020820190506104ce5f8301846104ac565b92915050565b5f82825260208201905092915050565b7f4f6e6c792074686520636f6e7472616374206f776e65722063616e20776974685f8201527f647261772066756e647300000000000000000000000000000000000000000000602082015250565b5f61053e602a836104d4565b9150610549826104e4565b604082019050919050565b5f6020820190508181035f83015261056b81610532565b9050919050565b7f496e73756666696369656e742066756e647300000000000000000000000000005f82015250565b5f6105a66012836104d4565b91506105b182610572565b602082019050919050565b5f6020820190508181035f8301526105d38161059a565b905091905056fea264697066735822122091bcb82510ba06f3985abf071f997a2b3ff0ff3e767de4f2b0f5a27538792f9864736f6c634300081a0033",
					"opcodes": "PUSH1 0xA0 PUSH1 0x40 MSTORE CALLER PUSH20 0xFFFFFFFFFFFFFFFFFFFFFFFFFFFFFFFFFFFFFFFF AND PUSH1 0x80 DUP2 PUSH20 0xFFFFFFFFFFFFFFFFFFFFFFFFFFFFFFFFFFFFFFFF AND DUP2 MSTORE POP POP PUSH1 0x80 MLOAD PUSH2 0x610 PUSH2 0x65 PUSH0 CODECOPY PUSH0 DUP2 DUP2 PUSH2 0x162 ADD MSTORE DUP2 DUP2 PUSH2 0x233 ADD MSTORE DUP2 DUP2 PUSH2 0x2A3 ADD MSTORE PUSH2 0x311 ADD MSTORE PUSH2 0x610 PUSH0 RETURN INVALID PUSH1 0x80 PUSH1 0x40 MSTORE PUSH1 0x4 CALLDATASIZE LT PUSH2 0x37 JUMPI PUSH0 CALLDATALOAD PUSH1 0xE0 SHR DUP1 PUSH4 0x155DD5EE EQ PUSH2 0xE4 JUMPI DUP1 PUSH4 0x329A27E7 EQ PUSH2 0x10C JUMPI DUP1 PUSH4 0x8DA5CB5B EQ PUSH2 0x136 JUMPI PUSH2 0x8E JUMP JUMPDEST CALLDATASIZE PUSH2 0x8E JUMPI CALLER PUSH20 0xFFFFFFFFFFFFFFFFFFFFFFFFFFFFFFFFFFFFFFFF AND PUSH32 0x1D57945C1033A96907A78F6E0EBF6A03815725DAC25F33CC806558670344AC88 CALLVALUE TIMESTAMP PUSH1 0x40 MLOAD PUSH2 0x84 SWAP3 SWAP2 SWAP1 PUSH2 0x34B JUMP JUMPDEST PUSH1 0x40 MLOAD DUP1 SWAP2 SUB SWAP1 LOG2 STOP JUMPDEST CALLER PUSH20 0xFFFFFFFFFFFFFFFFFFFFFFFFFFFFFFFFFFFFFFFF AND PUSH32 0xA9C267D9F02E409B1C8099AEABF510975453C6B0299D199070448A33F3267E6A CALLVALUE PUSH0 CALLDATASIZE TIMESTAMP PUSH1 0x40 MLOAD PUSH2 0xDA SWAP5 SWAP4 SWAP3 SWAP2 SWAP1 PUSH2 0x3CC JUMP JUMPDEST PUSH1 0x40 MLOAD DUP1 SWAP2 SUB SWAP1 LOG2 STOP JUMPDEST CALLVALUE DUP1 ISZERO PUSH2 0xEF JUMPI PUSH0 DUP1 REVERT JUMPDEST POP PUSH2 0x10A PUSH1 0x4 DUP1 CALLDATASIZE SUB DUP2 ADD SWAP1 PUSH2 0x105 SWAP2 SWAP1 PUSH2 0x438 JUMP JUMPDEST PUSH2 0x160 JUMP JUMPDEST STOP JUMPDEST CALLVALUE DUP1 ISZERO PUSH2 0x117 JUMPI PUSH0 DUP1 REVERT JUMPDEST POP PUSH2 0x120 PUSH2 0x308 JUMP JUMPDEST PUSH1 0x40 MLOAD PUSH2 0x12D SWAP2 SWAP1 PUSH2 0x463 JUMP JUMPDEST PUSH1 0x40 MLOAD DUP1 SWAP2 SUB SWAP1 RETURN JUMPDEST CALLVALUE DUP1 ISZERO PUSH2 0x141 JUMPI PUSH0 DUP1 REVERT JUMPDEST POP PUSH2 0x14A PUSH2 0x30F JUMP JUMPDEST PUSH1 0x40 MLOAD PUSH2 0x157 SWAP2 SWAP1 PUSH2 0x4BB JUMP JUMPDEST PUSH1 0x40 MLOAD DUP1 SWAP2 SUB SWAP1 RETURN JUMPDEST PUSH32 0x0 PUSH20 0xFFFFFFFFFFFFFFFFFFFFFFFFFFFFFFFFFFFFFFFF AND CALLER PUSH20 0xFFFFFFFFFFFFFFFFFFFFFFFFFFFFFFFFFFFFFFFF AND EQ PUSH2 0x1EE JUMPI PUSH1 0x40 MLOAD PUSH32 0x8C379A000000000000000000000000000000000000000000000000000000000 DUP2 MSTORE PUSH1 0x4 ADD PUSH2 0x1E5 SWAP1 PUSH2 0x554 JUMP JUMPDEST PUSH1 0x40 MLOAD DUP1 SWAP2 SUB SWAP1 REVERT JUMPDEST SELFBALANCE DUP2 GT ISZERO PUSH2 0x231 JUMPI PUSH1 0x40 MLOAD PUSH32 0x8C379A000000000000000000000000000000000000000000000000000000000 DUP2 MSTORE PUSH1 0x4 ADD PUSH2 0x228 SWAP1 PUSH2 0x5BC JUMP JUMPDEST PUSH1 0x40 MLOAD DUP1 SWAP2 SUB SWAP1 REVERT JUMPDEST PUSH32 0x0 PUSH20 0xFFFFFFFFFFFFFFFFFFFFFFFFFFFFFFFFFFFFFFFF AND PUSH32 0xD5CA65E1EC4F4864FEA7B9C5CB1EC3087A0DBF9C74641DB3F6458EDF445C4051 DUP3 TIMESTAMP PUSH1 0x40 MLOAD PUSH2 0x299 SWAP3 SWAP2 SWAP1 PUSH2 0x34B JUMP JUMPDEST PUSH1 0x40 MLOAD DUP1 SWAP2 SUB SWAP1 LOG2 PUSH32 0x0 PUSH20 0xFFFFFFFFFFFFFFFFFFFFFFFFFFFFFFFFFFFFFFFF AND PUSH2 0x8FC DUP3 SWAP1 DUP2 ISZERO MUL SWAP1 PUSH1 0x40 MLOAD PUSH0 PUSH1 0x40 MLOAD DUP1 DUP4 SUB DUP2 DUP6 DUP9 DUP9 CALL SWAP4 POP POP POP POP ISZERO DUP1 ISZERO PUSH2 0x304 JUMPI RETURNDATASIZE PUSH0 DUP1 RETURNDATACOPY RETURNDATASIZE PUSH0 REVERT JUMPDEST POP POP JUMP JUMPDEST PUSH0 SELFBALANCE SWAP1 POP SWAP1 JUMP JUMPDEST PUSH32 0x0 DUP2 JUMP JUMPDEST PUSH0 DUP2 SWAP1 POP SWAP2 SWAP1 POP JUMP JUMPDEST PUSH2 0x345 DUP2 PUSH2 0x333 JUMP JUMPDEST DUP3 MSTORE POP POP JUMP JUMPDEST PUSH0 PUSH1 0x40 DUP3 ADD SWAP1 POP PUSH2 0x35E PUSH0 DUP4 ADD DUP6 PUSH2 0x33C JUMP JUMPDEST PUSH2 0x36B PUSH1 0x20 DUP4 ADD DUP5 PUSH2 0x33C JUMP JUMPDEST SWAP4 SWAP3 POP POP POP JUMP JUMPDEST PUSH0 DUP3 DUP3 MSTORE PUSH1 0x20 DUP3 ADD SWAP1 POP SWAP3 SWAP2 POP POP JUMP JUMPDEST DUP3 DUP2 DUP4 CALLDATACOPY PUSH0 DUP4 DUP4 ADD MSTORE POP POP POP JUMP JUMPDEST PUSH0 PUSH1 0x1F NOT PUSH1 0x1F DUP4 ADD AND SWAP1 POP SWAP2 SWAP1 POP JUMP JUMPDEST PUSH0 PUSH2 0x3AB DUP4 DUP6 PUSH2 0x372 JUMP JUMPDEST SWAP4 POP PUSH2 0x3B8 DUP4 DUP6 DUP5 PUSH2 0x382 JUMP JUMPDEST PUSH2 0x3C1 DUP4 PUSH2 0x390 JUMP JUMPDEST DUP5 ADD SWAP1 POP SWAP4 SWAP3 POP POP POP JUMP JUMPDEST PUSH0 PUSH1 0x60 DUP3 ADD SWAP1 POP PUSH2 0x3DF PUSH0 DUP4 ADD DUP8 PUSH2 0x33C JUMP JUMPDEST DUP2 DUP2 SUB PUSH1 0x20 DUP4 ADD MSTORE PUSH2 0x3F2 DUP2 DUP6 DUP8 PUSH2 0x3A0 JUMP JUMPDEST SWAP1 POP PUSH2 0x401 PUSH1 0x40 DUP4 ADD DUP5 PUSH2 0x33C JUMP JUMPDEST SWAP6 SWAP5 POP POP POP POP POP JUMP JUMPDEST PUSH0 DUP1 REVERT JUMPDEST PUSH2 0x417 DUP2 PUSH2 0x333 JUMP JUMPDEST DUP2 EQ PUSH2 0x421 JUMPI PUSH0 DUP1 REVERT JUMPDEST POP JUMP JUMPDEST PUSH0 DUP2 CALLDATALOAD SWAP1 POP PUSH2 0x432 DUP2 PUSH2 0x40E JUMP JUMPDEST SWAP3 SWAP2 POP POP JUMP JUMPDEST PUSH0 PUSH1 0x20 DUP3 DUP5 SUB SLT ISZERO PUSH2 0x44D JUMPI PUSH2 0x44C PUSH2 0x40A JUMP JUMPDEST JUMPDEST PUSH0 PUSH2 0x45A DUP5 DUP3 DUP6 ADD PUSH2 0x424 JUMP JUMPDEST SWAP2 POP POP SWAP3 SWAP2 POP POP JUMP JUMPDEST PUSH0 PUSH1 0x20 DUP3 ADD SWAP1 POP PUSH2 0x476 PUSH0 DUP4 ADD DUP5 PUSH2 0x33C JUMP JUMPDEST SWAP3 SWAP2 POP POP JUMP JUMPDEST PUSH0 PUSH20 0xFFFFFFFFFFFFFFFFFFFFFFFFFFFFFFFFFFFFFFFF DUP3 AND SWAP1 POP SWAP2 SWAP1 POP JUMP JUMPDEST PUSH0 PUSH2 0x4A5 DUP3 PUSH2 0x47C JUMP JUMPDEST SWAP1 POP SWAP2 SWAP1 POP JUMP JUMPDEST PUSH2 0x4B5 DUP2 PUSH2 0x49B JUMP JUMPDEST DUP3 MSTORE POP POP JUMP JUMPDEST PUSH0 PUSH1 0x20 DUP3 ADD SWAP1 POP PUSH2 0x4CE PUSH0 DUP4 ADD DUP5 PUSH2 0x4AC JUMP JUMPDEST SWAP3 SWAP2 POP POP JUMP JUMPDEST PUSH0 DUP3 DUP3 MSTORE PUSH1 0x20 DUP3 ADD SWAP1 POP SWAP3 SWAP2 POP POP JUMP JUMPDEST PUSH32 0x4F6E6C792074686520636F6E7472616374206F776E65722063616E2077697468 PUSH0 DUP3 ADD MSTORE PUSH32 0x647261772066756E647300000000000000000000000000000000000000000000 PUSH1 0x20 DUP3 ADD MSTORE POP JUMP JUMPDEST PUSH0 PUSH2 0x53E PUSH1 0x2A DUP4 PUSH2 0x4D4 JUMP JUMPDEST SWAP2 POP PUSH2 0x549 DUP3 PUSH2 0x4E4 JUMP JUMPDEST PUSH1 0x40 DUP3 ADD SWAP1 POP SWAP2 SWAP1 POP JUMP JUMPDEST PUSH0 PUSH1 0x20 DUP3 ADD SWAP1 POP DUP2 DUP2 SUB PUSH0 DUP4 ADD MSTORE PUSH2 0x56B DUP2 PUSH2 0x532 JUMP JUMPDEST SWAP1 POP SWAP2 SWAP1 POP JUMP JUMPDEST PUSH32 0x496E73756666696369656E742066756E64730000000000000000000000000000 PUSH0 DUP3 ADD MSTORE POP JUMP JUMPDEST PUSH0 PUSH2 0x5A6 PUSH1 0x12 DUP4 PUSH2 0x4D4 JUMP JUMPDEST SWAP2 POP PUSH2 0x5B1 DUP3 PUSH2 0x572 JUMP JUMPDEST PUSH1 0x20 DUP3 ADD SWAP1 POP SWAP2 SWAP1 POP JUMP JUMPDEST PUSH0 PUSH1 0x20 DUP3 ADD SWAP1 POP DUP2 DUP2 SUB PUSH0 DUP4 ADD MSTORE PUSH2 0x5D3 DUP2 PUSH2 0x59A JUMP JUMPDEST SWAP1 POP SWAP2 SWAP1 POP JUMP INVALID LOG2 PUSH5 0x6970667358 0x22 SLT KECCAK256 SWAP2 0xBC 0xB8 0x25 LT 0xBA MOD RETURN SWAP9 GAS 0xBF SMOD 0x1F SWAP10 PUSH27 0x2B3FF0FF3E767DE4F2B0F5A27538792F9864736F6C634300081A00 CALLER "
				},
				"gasEstimates": {
					"creation": {
						"codeDepositCost": "310400",
						"executionCost": "infinite",
						"totalCost": "infinite"
					},
					"external": {
						"": "infinite",
						"getWalletBalance()": "334",
						"owner()": "infinite",
						"withdrawFunds(uint256)": "infinite"
					}
				},
				"methodIdentifiers": {
					"getWalletBalance()": "329a27e7",
					"owner()": "8da5cb5b",
					"withdrawFunds(uint256)": "155dd5ee"
				}
			},
			"storageLayout": {
				"storage": [],
				"types": null
			},
			"userdoc": {
				"kind": "user",
				"methods": {},
				"version": 1
			}
		}
	}
}